:1000000089C098C097C096C095C049C293C092C09D
:1000100091C090C08FC08EC08DC08CC08BC01F3F60
:100020003F7F7F7EFCFCF8F8F8F8F8F8F8F8F8F86D
:10003000F8F8FCFC7E7F7F3F3F1FE0F0F8FCFEFFFE
:10004000FFFFFFFFFFFFFFFFFFFEFCF8F0E0FFFFF9
:10005000FFFFFFFFFFFFFFFFFFFFFFFFFFFFFFFFB0
:10006000FFFFFFFFFFFFFFFFFFFFFFFFFFFFFFFFA0
:10007000FFFFFFFFFFFF070F1F3F7FFFFFFFFFFF98
:10008000FFFFFFFFFF7F3F1F0F0730300C0C3030AA
:100090000C0C3030000000000000000000000000E8
:1000A0000000000000000000000000000000000050
:1000B0000000000000000000000000000000000040
:1000C0000000000000000000000000000000000030
:1000D00000000018180000000000000000000000F0
:1000E0000000000000000000000000000000000010
:1000F0000000000000000000000000000000000000
:1001000000000000000000000000000000000000EF
:100110000000000011241FBECFE5D2E0DEBFCDBF3E
:1001200020E0A0E6B0E001C01D92AF37B207E1F7D2
:1001300000D2ABC265CFE0917E00E43138F4EF5FCE
:10014000E0937E00F0E0E659FF4F808308953FB7CB
:10015000F8948091650090916600A0916700B0913D
:10016000680022B708B601FE05C02F3F19F00196BE
:10017000A11DB11D3FBFBA2FA92F982F8827BC0101
:10018000CD01620F711D811D911D43E0660F771F28
:10019000881F991F4A95D1F708958F929F92AF9229
:1001A000BF92CF92DF92EF92FF924B015C01CFDFC3
:1001B0006B017C01CCDF6C197D098E099F09683EBB
:1001C000734081059105B0F321E0821A9108A108DE
:1001D000B10888EEC80E83E0D81EE11CF11C811422
:1001E0009104A104B10431F7FF90EF90DF90CF901C
:1001F000BF90AF909F908F900895C09AC29ABA9A7C
:10020000B89A8FEF8FB98AE28DB980EF8EB90895D1
:10021000C29AC29BFECF00C000C00000C09800C0C0
:1002200000C0C298C09A779905C083E080936900A6
:1002300080E0089581E008958EB98BE200C000C08F
:1002400000008DB9B29BFECF00C000C08DB9769B77
:10025000F5CF00C000C000008FB19FEF9FB9B89AE2
:100260000895CF92DF92EF92FF920F931F93CF9357
:10027000DF9300917E0081E08093690080916A00A5
:1002800080FD03C083E080936900C2DF882311F101
:100290000F5F102FCAE6D0E0DD24DA94CC24C3949B
:1002A0007E018FEFE81AF80A80916900837009F4E3
:1002B00044C0C29888818FB980EFBEDFB8988EEFB6
:1002C000BBDF9091690080FF0AC081E090FF82E06F
:1002D0008093690010927E008091690025C0892F6B
:1002E0008570843061F480916A00816080936A0037
:1002F000C09269008DDF81112CC08AE0E9CF9E7F1A
:1003000090936900E701115059F6C098C29AB29BC8
:10031000FECF00C000C0C09A00C000C00000759BA6
:100320001CC010927E0080E0DF91CF911F910F9151
:10033000FF90EF90DF90CF900895B89880EF7CDF2A
:100340008883113021F4DFB88EEF76DFDBCF1FB862
:10035000FBCF102FCAE6D0E0D6CF84E0B9CFCF9341
:10036000C82F4BDF10927E0088E780936A0080E8F8
:10037000E2DE8C2FE0DECF9174CFDF92EF92FF921E
:100380000F931F93CF93DF93D82E162FD42FC22F06
:1003900034DF10927E008AE6E82E80E0F82E08E72F
:1003A000F701008380E8C7DE81E2C5DE80E0C3DEBE
:1003B0008D2DC1DE8FEF8D0F8D0DBDDE52DF1DDF68
:1003C00010927E00F701008380E8B5DE82E2B3DEA2
:1003D00080E0B1DE812FAFDE8FEF8C0F810FABDEBF
:1003E000DF91CF911F910F91FF90EF90DF9039CF68
:1003F0000F931F93CF93DF9380E0B1DF80E1AFDFF6
:1004000080E4ADDF28E040E860E080E0B6DFC1E4F2
:10041000D0E008E710927E0000936A0080E48BDE53
:1004200010E180E088DE1150E1F71BDF219791F7A2
:10043000DF91CF911F910F910895CF92DF92EF92AC
:10044000FF920F931F93CF93DF937C01862F642F2E
:10045000C22F202F4C2F91DF602F70E08C2F90E067
:1004600003D16C01D0E0C0E018E7F701EC0FFD1FED
:10047000049110927E0010936A0080E45CDE802F6D
:100480005ADEEFDE2196CC16DD0679F7DF91CF91AB
:100490001F910F91FF90EF90DF90CF9008951F92E2
:1004A0000F920FB60F9211242F933F938F939F9328
:1004B000AF93BF938091610090916200A09163001F
:1004C000B09164003091600026E0230F2D3758F57D
:1004D0000296A11DB11D209360008093610090934E
:1004E0006200A0936300B0936400809165009091D6
:1004F0006600A0916700B09168000196A11DB11D32
:100500008093650090936600A0936700B0936800A5
:10051000BF91AF919F918F913F912F910F900FBEFF
:100520000F901F90189529E8230F0396A11DB11D68
:10053000D2CF78948AB582608ABD8AB581608ABD3F
:1005400083B7826083BF83B7816083BF89B78260CE
:1005500089BF80B7826080BF80B7816080BF8CB563
:1005600080648CBD329A319A3098379A46DE65E0C5
:1005700070E080E090E011DE8EEAF1DE88EAEFDEE6
:100580008FE3EDDE83EDEBDE80E0E9DE80E2E7DEA7
:1005900080E0E5DE80EBE3DE80E0E1DE80E1DFDECF
:1005A00080E4DDDE81E8DBDE8FECD9DE81EAD7DEB8
:1005B00088ECD5DE86EAD3DE85EDD1DE80E8CFDEBD
:1005C00089EDCDDE81EFCBDE8AEDC9DE82E1C7DECB
:1005D0008BEDC5DE80E3C3DE8EE2C1DE8DE8BFDEDB
:1005E00084E1BDDE8FEABBDE03DF80E0B8DE80E1C0
:1005F000B6DE80E4B4DEC0E0D0E0FADE01E020E860
:1006000044E060E084E990E018DF68EE73E080E0A9
:1006100090E0C3DDEDDE2AE041E066E28AE890E0AA
:100620000CDF2AE041E060E58AE890E006DF04E0C4
:1006300024E142E061E28AE390E0FFDE24E142E06F
:100640006AE48AE390E0F9DE01E02CE147E062E34E
:100650008EE190E0F2DE68EE73E080E090E09DDDF8
:10066000209759F2CDDCC9CF0024552704C0080ECD
:10067000591F880F991F009729F076956795B8F351
:0E0680007105B9F7802D952F0895F894FFCFDE
:00000001FF
